:020000040000FA
:10000000802D0002715500008355000085550000C9
:1000100087550000895500008B5500000000000046
:100020000000000000000000000000008D550000EE
:100030008F5500000000000091550000935500000E
:100040009555000095550000955500009555000008
:1000500095550000955500009555000095550000F8
:1000600095550000955500009555000095550000E8
:10007000955500009555000095550000152300008A
:10008000091E00009555000095550000955500008B
:1000900021230000FB1A0000955500009555000033
:1000A00095550000955500009555000081160000FB
:1000B0009555000095550000955500009555000098
:1000C0009555000095550000955500009555000088
:1000D0009555000095550000955500009555000078
:1000E0009555000095550000955500009555000068
:1000F000955500009555000095550000DFF814D087
:1001000006F03EFC05F04CFC004800476703000089
:1001100006F0F0F9802D0002FEB442464B465446EC
:100120005D463EB405F0EFFA3EBC90469946A246C5
:10013000AB46FEBC00F032F8704700BF80EC200BED
:100140007047C0EC200B704790EC200B7047D0EC50
:10015000200B704785460D98DDF838E00F9B5DF861
:10016000042B20E90C009DE8FE1F854601BD4DF8DB
:1001700008ED0DF1080E4DF804ED2DE9FF1F0021EB
:1001800002B4694681B006F046FBDDF840E012B0EB
:1001900070470000BC8C0000A49300004DF808EDEF
:1001A0000DF1080E4DF804ED2DE9FF1F002102B4FA
:1001B000694681B006F096BB10B50021E0E80F114A
:1001C0000A2308223C4907F0C7F8A0F13C04342177
:1001D000343805F082FB204610BD384810B5007851
:1001E000C00709D1354807F0C9F828B13448FFF7EE
:1001F000E3FF3248AFF30080314810BD70B50446CC
:10020000402913DC154600230A460120194605F053
:1002100024FB25B1D4E9002302430B4304E0D4E9D5
:100220000023C5432A408B43C4E9002370BD70B549
:1002300040290DDCD0E9004500230A46012019467B
:1002400005F00BFB04400D402C4301D0012070BD94
:10025000002070BD643900EB810082607047643912
:1002600000EB810080687047A1F57A7100EBC10056
:100270001168C163516801647047A1F57A7100EBA0
:10028000C1003C30704770B50021C0E9001100F199
:10029000080100F13C03002200E004C19942FCD1B6
:1002A00000F13C0400F18C0503E0204606F033FF2A
:1002B0000834AC42F9D170BD23710000080000027F
:1002C000D000000270B589B215460446818004F062
:1002D00091FFA1882A46206805F0F8FAA2882168D3
:1002E00000208854204670BD00B5034604F0BBFFD3
:1002F000184600BD012305F08BBD7047FFFFFFFFCF
:1003000070B504460025FFF768FF1421FFF78FFF43
:10031000504E90B10A2C12D02146306801F067FC93
:100320000D2C0CD1FFF759FF2321FFF780FF98B167
:100330000A21306801F05BFC0EE00D2C0CD005F0BA
:100340009BFA0068005D10F03E0F03D021467068F4
:1003500001F0CDF8284670BD0125FBE701463D4878
:10036000006801F029BC10B505F01CF900F004F894
:1003700000F040F8002010BD374810B550F8C81FF5
:1003800041F0010140F88019016821F0010101608C
:10039000D0F8801041F03001C0F88010016821F0E1
:1003A00030010160D0F8801041F00201C0F88010E7
:1003B000016821F002010160C16F41F40061C16771
:1003C000C16F41F48051C167C16F41F40051C167F1
:1003D000C16F41F48041C16701F09AFB01F031FC2B
:1003E00001F0A2F902F086F801F040FDBDE81040EE
:1003F00001F0C8B870B5174C182006F06FFF05461D
:1004000004224FF4026101F023F814496060C068CF
:10041000086001F01FFB4FF4E131206001F0A0FB08
:1004200021680F48C1F8D00001F038FF00F0BEFD90
:10043000206890F8CC1049B1002180F8CC10606899
:1004400000F04DFD606801F091F8F1E700F0C3FDA8
:10045000EEE700000000000200400740100000022C
:10046000010300000A880282897881740021C17426
:10047000704770470174427483740021C1747047DF
:10048000D74A02600172002200F11401C26041608B
:10049000704770B500244FF48C71012806D00228F3
:1004A00015D0032835D004284FD121E0084606F0A6
:1004B00015FF05460121FFF7E3FF0446C948206008
:1004C000F1236A2268212046FFF7D4FF31E0084675
:1004D00006F004FF05460221FFF7D2FF0446C2489A
:1004E0002060F1233322C0212046FFF7C3FF20E024
:1004F000084606F0F3FE05460421FFF7C1FF044657
:10050000BA482060F1236A2268212046FFF7B2FF33
:100510000FE0084606F0E2FE05460321FFF7B0FFB4
:100520000446B3482060F1236A2261212046FFF788
:10053000A1FFFFF752FE40F2EE31FFF79EFE0146AB
:10054000C07910B12046FFF78DFF204670BD10B571
:10055000FFF78FFFBDE8104006F0B8BE37B582B098
:1005600004460498E060A3480D464068814210D0DC
:100570004FF482700090694604A807F041FA0268BF
:10058000294604F11400054605F080F9656005B0C0
:1005900030BD6160FBE77FB506464020039095487B
:1005A0000078C0070FD1934806F0E8FE58B1914893
:1005B000C021083004F02FFE8F4A904905F000FA60
:1005C0008C48AFF30080F06800908A4808300190B2
:1005D000FFF703FE2C21FFF72AFE8DF80800002408
:1005E00020E003A9684607F00BFA05687068814AA5
:1005F00020440832294600F013FE0098411B009168
:1006000006D09DF8080018B12021019804F0AFFE33
:1006100078480830FFF7A2FE76480021083004F041
:1006200039FE403400980028DBD175A000F0FDF8B9
:100630007FBD70B50D4641680446C268481905F093
:1006400025F92A4604F11001606805F01FF9E068F9
:100650002844E06070BDC268521AC260406801441C
:1006600005F014B930B5002211464468C36803E0B0
:10067000655C491C2A44D2B28B42F9D8591CC1602E
:10068000E25430BDF0B54468C668FF21A646B446C2
:10069000012713E0082314F8012B0CE082EA01057E
:1006A0002D0604D581F00E0107EB410100E0490061
:1006B0005206C9B2120E1D465B1EEFD23246761E9E
:1006C000E8D20CF10102C943C2600EF80C10F0BD73
:1006D00010B504460321FFF7ACFF2046BDE81040EB
:1006E000C0E710B504460321FFF7B5FFE068401EE0
:1006F000E060012010BDB5E72DE9F041017C044622
:10070000880905D00325E0683F2803D9012602E0C7
:100710000125F8E70026090711D000210E4300D07B
:100720006D1CC7B229462046FFF783FF606846B1BB
:100730006D1E47556068017801F0C00105E0012198
:10074000ECE7017801F0C001394301702046BDE8B3
:10075000F04187E710B504460068416920468847A4
:1007600001462046FFF777FFE068401EE060012069
:1007700010BD77E740680078820900F03F0104D09F
:100780000320002900D1401C70470120F9E710B573
:1007900004460321FFF74DFF2046BDE8104071E7F6
:1007A00010B504460321FFF756FFE068401EE060E5
:1007B000012010BD66E710B504460321FFF739FF9D
:1007C0002046BDE810405DE710B504460321FFF761
:1007D00042FFE068401EE060012010BD52E70000CB
:1007E000BC8B0000008A0000708A0000FC8B0000B7
:1007F000DC8B00000C000002000000007D520000B5
:100800000000000010B50446FFF7E7FC2321FFF7C6
:100810000EFD08B1F9A100E0F9A1204604F0DCFDCD
:100820002046BDE81040FFF799BD1CB5044605F011
:100830005FF8811C684604F0EEFC2146684604F02F
:10084000EDFD6846FFF7DEFF684604F017FD1CBDAE
:1008500010B50C46FFF7C1FC01222146FFF7CEFC84
:10086000BDE81040E748E0E710B50C46FFF7B5FCDF
:1008700000222146FFF7C2FCBDE81040E148D4E762
:1008800070B50D461022002104F06CFC0446401C9B
:1008900009D0FFF7A2FC22462946FFF7DBFCD94826
:1008A000BDE87040C1E7D748801EF9E71CB50C468B
:1008B000684606F036FCFFF790FC6A462146FFF7D3
:1008C000D3FCD048FFF7B1FF1CBD10B50C4686B075
:1008D0000146684604F0BAFC02A806F022FC68460D
:1008E00006F04BFC03280BD16A46C7A104A804F00C
:1008F000B3FD04A9684604F083FD04A804F0BEFC1F
:1009000002A9684600F063FC00B1012098B1684676
:1009100006F033FC40088DF80F00FFF75EFC02AADA
:100920002146FFF7A1FCB748FFF77FFF684604F0B8
:10093000A5FC06B010BDB348801EF5E7B14874E7CA
:1009400010B500F019FD00210160BDE81040AD4870
:100950006BE710B500F010FD01210160BDE810400B
:10096000A84862E710B500F007FD02210160BDE86C
:100970001040A44859E770472DE9FF4106466846F4
:1009800006F0CFFBFFF729FC0746304606F0F5FBE3
:1009900040F2E934E51C78B1304606F0EEFB03285E
:1009A00010D0304606F0E9FB08280BD09548801E91
:1009B000FFF73BFFBDE8FF816A4621463846FFF757
:1009C00053FC13E000200290039002AA03A93046D2
:1009D00000F05EFC02208DF80700039800906A4644
:1009E00021463846FFF740FC029800906A462946A7
:1009F0003846FFF739FC03F031FC03F088FD8148ED
:100A0000D6E72DE9F0410746FFF7E7FB064640F23F
:100A1000EB31FFF732FC054640F2EA313046FFF792
:100A20002CFC044610220021384604F09BFB20B128
:100A3000012804D0022813D10EE0002204E0E87956
:100A400070B1E07960B1012265213046FFF702FC08
:100A50006C48BDE8F041E8E6E07908B10222F3E72E
:100A60006848801EF5E710B5FFF72FFF03F0F6FB8F
:100A7000BDE8104003F04BBD624810B51430FFF7DD
:100A8000D4FE60483830FFF7D0FE5E48BDE8104025
:100A90008230CAE610B503F0E1FBBDE8104003F078
:100AA00012BD01F0E1BB5748C01CBEE610B503F013
:100AB000D5FBBDE8104003F042BC10B503F0CEFBFF
:100AC000BDE8104003F0DDBB10B503F0C7FBBDE887
:100AD000104003F0DABB4B480830A6E6704710B56B
:100AE00003F0BCFBBDE8104003F008BD10B503F0F7
:100AF000B5FBBDE8104003F00EBD10B5044603F091
:100B0000ADFB2146BDE8104003F009BD70B50C46B1
:100B10000546FFF762FB00220421FFF76FFB214629
:100B20002846BDE87040ABE610B503F097FB03F034
:100B30000AFCBDE81040334877E63EB540F6542441
:100B400000F075FD40F2BC414843B0FBF4F0642175
:100B5000401DB0FBF1F2B0FBF1F301FB13000A21E1
:100B6000B0FBF1F329A1684606F0CCFB6846FFF71D
:100B70005CFE3EBD7CB50546006800242646007834
:100B8000412818D1284606F0F8FA022813D128681F
:100B9000407842280FD0022301222946684604F0FB
:100BA000FEFB10220021684604F0DCFA0646684687
:100BB00004F064FB09E0284606F0DFFA01282BD098
:100BC00014A1284604F03CFCA0B10124FFF705FB6A
:100BD00022462F21FFF712FB03F040FB0122314692
:100BE00003F057FB012827D0FFF7F7FA00222F2147
:100BF000FFF704FB0348801E25E000000D0A0000FB
:100C00000D000000F27E00003000000025642E255B
:100C10003164560030300000022300222946684625
:100C200004F0BDFB10220021684604F09BFA064642
:100C3000684604F023FBC9E7FFF7CFFA3246692183
:100C4000FFF708FBF148BDE87C40EEE510B588B041
:100C5000044604A806F065FA06A806F062FA022324
:100C600000222146684604F09AFB4FF0FF3302222F
:100C7000214602A804F093FB04A9684600F0A7FAF5
:100C800048B306A902A800F0A2FA20B3684606F00D
:100C900074FA40088DF81700FFF79FFA04AA40F293
:100CA000ED31FFF7E1FA02A806F067FA40088DF887
:100CB0001F00FFF792FA06AA40F2EE31FFF7D4FACE
:100CC000D248FFF7B2FD02A804F0D8FA684604F053
:100CD000D5FA08B010BDCD48801EF2E770B50D46BC
:100CE00006460024CAA104F0ABFB28B9C9A13046CE
:100CF00004F0A6FB50B10124FFF76FFA2246294603
:100D0000FFF77CFAC148BDE870408EE5BF48801E01
:100D1000F9E710B50446BEA104F092FB08B1012426
:100D200005E0BDA1204604F08BFB50B10424FFF781
:100D300054FA22466F21FFF78DFAB448BDE81040FF
:100D400073E5B248801EF9E710B5FFF746FA04468E
:100D500003F084FA0122002103F09BFA2046FFF7FA
:100D600092FA002218212046FFF748FA0122232197
:100D70002046FFF743FA012214212046FFF73EFAEE
:100D800001222C212046FFF739FA01222F2120468B
:100D9000FFF734FA012221212046FFF72FFA002223
:100DA00009212046FFF72AFA01220A212046FFF7EF
:100DB00025FA012204212046FFF720FA00220E2105
:100DC0002046FFF71BFA01220D212046FFF716FAF5
:100DD00001221E212046FFF711FA00222021204681
:100DE000FFF70CFA332268212046FFF733FA9622E8
:100DF00070212046FFF72EFAF12267212046FFF7E7
:100E000029FAF12267212046FFF724FA2046012221
:100E1000BDE810406F21FFF71DBA10B5FFF794FF32
:100E2000BDE81040794800E510B5FFF78DFF03F0ED
:100E300072FC7648BDE810400830F6E42DE9FF4723
:100E400015000F4681464FF0FF3801D00B4600E0F9
:100E500043460146022202A804F0A1FA6B4CCE34AC
:100E600004F5C4661DE0207A00B10120A84217D124
:100E700002A8216804F0E4FA90B1DDB14346BA1C3F
:100E80004946684604F08BFA684606F076F9217AFE
:100E9000814202DC617A814210DA684604F0EEF9A0
:100EA0001034B442DFD102A804F0E8F9002004B005
:100EB000BDE8F08759A1684604F0B7F9E26852B17D
:100EC000684661689047684604F0D8F902A804F0C3
:100ED000D5F90120EBE7684604F0D0F9E3E77FB5E8
:100EE00004464F480078C0070FD14D4806F046FA37
:100EF00058B1002208214B4800F0AAFA4A4A4B494F
:100F000004F05EFD4648AFF300800025201D06F08A
:100F10002EF908B1434C07E0204600F0C9FA18B991
:100F20002146404800F0A8FA607D28B103F096F908
:100F3000214603F09AFA2FE0241D022300222146C5
:100F4000684604F02CFA3AA1684604F079FAD8B160
:100F50002546002204212046FFF770FF012458B9DE
:100F6000012204212846FFF769FF28B90122032145
:100F70002846FFF763FF08B1204604E00122022162
:100F80002846FFF75BFF0546684604F077F91DB970
:100F90001E48801EFFF749FC26A102A804F045F96F
:100FA000FFF7DCF902A804F069F97FBD1CB51BA1AD
:100FB000684604F03AF92821FFF736FF684604F046
:100FC0005DF91CA1684604F030F9FFF7C7F96846DF
:100FD00004F054F91CBD10B503F040F9BDE8104011
:100FE00003F0A9B91CB5044606F0C7F8811C684691
:100FF00004F011F92146684604F0EFF96846FFF75E
:1010000001FC684604F03AF91CBD0000F27E0000C5
:101010003100000035000000340000000000000036
:101020001C0000026001000200000000F16C0000E2
:10103000415400003E0000003EB50C4601918DF881
:1010400008300090002A55D09DF80300000904F0F4
:101050009AF80146204604F08AF99DF8030000F052
:101060000F0004F090F80146204604F080F901A832
:1010700006F03AF89DF80200000904F084F80146F1
:10108000204604F074F99DF8020000F00F0004F00F
:101090007AF80146204604F06AF901A806F024F81F
:1010A0009DF80100000904F06EF80146204604F0A6
:1010B0005EF99DF8010000F00F0004F064F80146AD
:1010C000204604F054F901A806F00EF89DF800003F
:1010D000000904F058F80146204604F048F99DF84C
:1010E000000000F00F0004F04EF80146204604F026
:1010F0003EF93EBD9DF8010000F00F0004F043F8FA
:101100000146204604F033F9E0E770B514460D4679
:101110000646FFF762F82C21FFF789F803462246BE
:1011200029463046BDE8704086E7002810D08A493D
:101130004FF47A720968B1FBF2F141434FF0E020BD
:10114000416100218161052101610169C903FCD56B
:1011500070478149814A0968B1FBF2F141434FF080
:10116000E02032394161002181610521016101697D
:10117000C903FCD570473EB5054679A00C4607C8A3
:101180008DE807006946204604F048F928780028D1
:101190001CD0000903F0F7FF014620688170287811
:1011A00000F00F0003F0EFFF01462068C17068787F
:1011B000000903F0E8FF01462068C171687800F07B
:1011C0000F0003F0E0FF0146206801723EBD2DE9EB
:1011D000FC478846814605F0D0FFC10700D0401E7D
:1011E00000252C4600EBD07714E002232A4649461E
:1011F000684604F0D4F810220021684603F0B2FFDC
:101200000646684604F03AF8701C07D008F80460F7
:10121000641CAD1CB4EB670FE7DB7810BDE8FC87FE
:101220002DE9FC4117460E4605460092FEF7D5FF14
:101230002C21FEF7FCFF8DF80400002414E0285D4B
:10124000000903F0A0FF0146384604F090F8285D3D
:1012500000F00F0003F097FF0146384604F087F8CE
:10126000684605F041FF641CB442E8D39DF80400D1
:1012700000280BD0384605F080FF002806D03846FD
:1012800005F07BFF411E384604F004F8BDE8FC8100
:101290002DE9FC47002517468A4681462C462E46F6
:1012A00021E0D9F80000805D582831D044F00F04C7
:1012B00025F00F08012332464946684604F06FF8CE
:1012C00010220021684603F04DFF40EA08056846F9
:1012D00003F0D4FF484605F050FF401EB04201D94C
:1012E00024012D01761C484605F047FFB042D8D8AE
:1012F000484605F042FF03280FD0484605F03DFF61
:1013000008288BD124F0604000BA386028BA0CE07D
:1013100024F00F0425F00F05DCE7C4F30A0000F009
:1013200014F83860284600F010F8CAF8000075E795
:1013300010B50022491E05E0835C445C845443548C
:10134000491E521C8A42F7DB10BDC1B2C0F3072010
:1013500040EA012070470000B000000240420F0048
:10136000313A2D2D20323A2D2D000000012101604F
:101370000021416081607047334810B50078C00794
:1013800009D1314805F0FAFF28B13048FFF7EEFFE8
:101390002D48AFF300802D4810BD10B502F05EFF60
:1013A00002F0D5FF801F06280BD2DFE800F0030310
:1013B00003030A03FEF711FFBDE810400E21FEF7FC
:1013C00036BF002010BD70B50546FEF706FF6D2143
:1013D000FEF745FF04462846FFF7DFFF08B105206A
:1013E00000E0012014B14443A00070BDC82070BDCE
:1013F00033B50446806881B0022802D2401CA06048
:101400003EBD6168029A251D02A8914200D20546A0
:101410002046FFF7D8FF00902A686946824200D331
:101420000D46286860603EBD0146406828B10A68E4
:101430001AB1012A03D0022A03D00846C3E71E309E
:1014400070470A3070470000200000027801000257
:1014500070B50D4616461021001D03F0DCFE041F7A
:1014600000202061207501206075A81905F032FF69
:101470002560E060204670BD70B50D460446A84268
:1014800014D0291D201D03F0A8FF2969226805F149
:101490001000914200D3204602682261287D207509
:1014A000687D6075E968E06804F0F0F9204670BD79
:1014B0000069082801D9012070470020704738B51D
:1014C0000146007D4FF0FF3478B10846FFF7F0FF8A
:1014D00058B900200090087D8DF8000010220021EE
:1014E000684604F023FA002800D1204638BDF8B53C
:1014F0000446202937D0002935D0084604F0C0F929
:10150000C5B2607D50B104F0B7F90068405D80EA73
:10151000800010F0800F01D0012000E000206075F5
:10152000201D05F02AFE102803D22946201D03F0B5
:101530001EFF21682069884215D2607DA0B1207D00
:1015400090B1002600968DF800008DF80150102211
:101550003146684604F0EAF90146D4E90330421CFA
:10156000226119542675F8BD2575F8BD10B50446DD
:10157000001D03F00FFF0020206120750120607521
:1015800010BD00002DE9F0413948364E364F374C3A
:10159000D0F8C4104FF0407541F00061C0F8C4109D
:1015A000416C41F000614164416C21F00061416493
:1015B0003049D1F8C02122F48062C1F8C021D0F8AE
:1015C000081221F48061C0F80812D5F80002A4F1D5
:1015D000F001006A42684FF08040904730603968FF
:1015E000216025496160D5F80012096A8A682146A0
:1015F000904738682060214860600020A060E0606B
:101600004FF480612061C4E9050120626062A0623C
:10161000E06220636063A0630B20E063D5F8000202
:101620002146006AC2683068BDE8F041104710B535
:101630000E4C8EB040340020CDE900400B49CDE97E
:101640000410029009900C904FF040706946D0F859
:101650000002006A0269034800689047A06A0EB061
:1016600010BD000024000002B0000002740200025D
:10167000004007400080034020A10700001BB70086
:101680004FF04070D0F8000280688168E24800693D
:10169000084710B5044600F07AFF00F097FFDE49D6
:1016A0000120A040CA681043C86010BDDA4910B5D7
:1016B0000020087000F06BFFBDE8104000F07EBF16
:1016C000D54800210170012141707047D349902213
:1016D0004A6241F208428A63401C0862086A0004B8
:1016E000FCD470474FF0FF3101604FF0E0234FF022
:1016F00000620021C3F80021C74AD1607047C64884
:1017000010B50079C0070CD1C348001D05F036FEA6
:1017100038B1C1480830FFF7E5FFBF48001DAFF3FF
:101720000080BD48083010BDBD4810B5D0F8C810C5
:1017300041F08001C0F8C810816C41F080018164E3
:10174000816C21F08001816400220921104600F0A3
:101750004FFB00221221104600F04AFB0022092113
:10176000104600F021FB01221221002000F01CFB9A
:10177000AC488169AC4A114081618169AB4A11432F
:10178000816110BD30B5054600680C468DB0A042A1
:101790002AD0012C24D041F64B41A54A0DF1180C5A
:1017A00052F8080B08CA8CE80B0007CA09AB83E89B
:1017B00007009F4918221831684604F067F806A808
:1017C000029009A803904FF040706946D0F80002DB
:1017D0008068426890481030904720B130BFFDE7E4
:1017E00042F6C531D9E72C600DB030BD2DE9F0418E
:1017F00090480A79884D0B684FF4967600240AB118
:101800004FF000521343C0E900344A790274D1F812
:1018100006208260D1F80A10C1604474012000F0F3
:10182000A1FD0746314600F0CDFD012028706C7007
:101830004FF040707F49D0F8000280684269286903
:10184000904706E0384600F0D7FD10B10020BDE813
:10185000F08128780028F5D1687880F00100F6E75B
:1018600070B586B01D46DDE90A068DF8113010B15D
:101870004FF0005400E000240C43CDE900424FF04B
:1018800040706946D0F800028068C268624800690A
:101890009047002E02D12846FFF718FF06B070BD12
:1018A0002DE9FC471E4617468846814601240A2C2E
:1018B0000AD00025CDE9006523463A464146484610
:1018C000FFF7CEFF15B104E00125F3E72046FFF74F
:1018D000FDFE641CE4B20A2CE9D90120BDE8FC87B6
:1018E0007CB5069C651E052D07D20125CDE9003586
:1018F000E3B2FFF7B5FF01207CBD00207CBD464868
:10190000C068002800D001207047F0B585B04FF0C6
:10191000FF300090404800250C468DF81050C168FB
:101920000122164606FA02F30B422BD0C1689943F6
:10193000C1604FF040718DF81120D1F8001200699C
:1019400089680A6969469047009802A920F06040BA
:1019500020609DF8100060710098C0F34070207105
:10196000C4F80650C4F80A509DF81020A01D03F0DA
:101970008DFF9DF81100A0730098401C00D001203D
:1019800005B0F0BD521C202ACCDB0020F8E725482A
:101990000029816904D0244AD243114381617047F0
:1019A000214A114081618169204AF6E70A461221E5
:1019B000002000F006BA6FF0604101230A466FE78D
:1019C000F0B50124144E85B000254FF040778DF816
:1019D000105000958DF81140D7F8000269468068D4
:1019E000026930699047641C202CF0DBF560C7E782
:1019F0000A480029016807D041F08001016041696F
:101A000041F008014161704721F080010160704799
:101A10000921002000F0E1B92800000200000F4079
:101A20000040074000800340FF0000FF0012090053
:101A3000E0850000D404000210B53221C03003F06C
:101A4000EAFB00210181418101730161017541754A
:101A5000C03810BD6E4810B50078C0070DD16C4875
:101A600005F08CFC48B16B48FFF7E6FF6A4A6B490A
:101A700003F0A6FF6648AFF30080664810BD10B5BE
:101A8000044667488168C9070AD04069D4F8D01075
:101A9000C0B231B194F8D4203AB9884784F8CC0068
:101AA00010BD94F8D4000028FAD0012084F8D500A5
:101AB00010BDB0F8CA10B0F8C820594B914208D2F6
:101AC0009A68520704D54A1CA0F8CA20405CD86125
:101AD000704704201861704770B5514C0546E168A5
:101AE000480702D52846FFF7E4FFE068C00703D0A7
:101AF0002846BDE87040C2E770BD10B5FFF7AAFFE9
:101B0000002804D0FFF7A6FFBDE81040E4E710BDB1
:101B1000444810B5D0F8C81041F40031C0F8C810DE
:101B2000816C41F400318164816C21F40031816465
:101B30000121C0F8D01000220E21104600F058F903
:101B400000220F21104600F053F9374801686FF367
:101B50000F010160016840F60F621143016010BD82
:101B60002DE9F0414FF0E0258EB04FF40014884687
:101B7000C5F88041BFF34F8FBFF36F8F4FF04077B1
:101B8000274ED7F800026946406A426830469047BF
:101B9000264989680C9126490968CDE90A18D7F8C1
:101BA0000012496A8A680AA99047C5F800410120D5
:101BB000F0600EB0BDE8F08170B5194D04460E46D8
:101BC000E8684007FCD40020A4F8CA000846C834DE
:101BD00005F0D3FA2080304605F0C7FA014634F804
:101BE000C829204603F052FE0420E86070BD0C486E
:101BF00082685207FCD5C1617047002219B10121EA
:101C000080F8D41001E080F8D42080F8D520704707
:101C10003C000002E804000200000000F97000002F
:101C20000000044000400740008003401086000090
:101C3000B0000002554870470A460821002000F015
:101C4000C0B810B500220721104600F0D1F80022DC
:101C50000821104600F0CCF800220721104600F0C1
:101C6000A3F801220821002000F09EF84848D0F88F
:101C7000C81041F48021C0F8C810816C41F4802163
:101C80008164816C21F4802181640121C0F8D0102D
:101C9000BDE810403D48CFE73E480029416803D0E9
:101CA0003D4A1143416070473B4AD2431140416075
:101CB000416841F4E121F5E730B50D468DB00021D2
:101CC000FFF7EAFF4FF0E0214FF48000C1F88001F8
:101CD000BFF34F8FBFF36F8F4FF040746946D4F856
:101CE0000002406A42682D4890472D4989680C914E
:101CF0002C490968CDE90A15D4F80012496A8A68A6
:101D00000AA990470DB030BD244882685207FCD51F
:101D1000C161704721484069C0B270471F48806860
:101D2000C0F30000704703461E4800B500684FF43A
:101D30007A72B0FBF2F000EB80004FF0E0228000FE
:101D40005061002090610520106102E01069C0031D
:101D50000BD41846FFF7E2FF0028F7D00F48406980
:101D6000C0B2884201D1012000BD002000BD0B4857
:101D7000816811F4C04F04D0816841F4C041816092
:101D8000406970470721002000F027B8400000029A
:101D9000004007400080034000FFFF000040044077
:101DA0001C860000B000000210B5154C012304EBA6
:101DB00080008B4001680AB1194300E0994301603B
:101DC00010BD01238B400E4901EB800012B1C0F819
:101DD00000327047C0F880327047094A02EB800039
:101DE000D0F8000101228A40104000D00120704745
:101DF000044B1B6803EBC01040F821207047000023
:101E00000020001C44000002FE4AD2F8F400FE4903
:101E1000C30709D04B7843F001034B70D2F8F4307C
:101E200043F00103C2F8F43083070CD5D2F8043133
:101E30004B604B7843F002034B70D2F8F43043F020
:101E40000203C2F8F43040070DD5D2F8080148600B
:101E500048688860487840F00400487052F8F40FF1
:101E600040F0040010607047E748704710B5012249
:101E700005210020FFF798FF012205210020FFF730
:101E8000A0FFE248D0F8C81041F00401C0F8C81023
:101E9000816C41F004018164816C21F00401816452
:101EA000DB4800210160D7480165DA49CA6922F49C
:101EB0007F42CA61CA6942F48072CA61CA6922F467
:101EC0007F02CA61CA6942F4E812CA6140F6016140
:101ED00001604FF004114160CF49D04A0968B1FB5D
:101EE000F2F16FF01F0202EB4111426811434160B1
:101EF0000621C1644FF4A041C0F804134FF4C84157
:101F0000C0F80C134FF4D041C0F814134DF2030184
:101F1000C0F81C13C2490A6842F008020A60C14AAC
:101F2000C0F824230A1F136843F010031360BE4B4C
:101F3000C0F82C330B6843F020030B60B84908311C
:101F40000B6843F020030B60B849C0F834131168E4
:101F500041F040011160B249091D0A6842F0400297
:101F60000A600221C0F804120421C0F808127E2180
:101F700081600721C0F8F0104FF0E0214FF480306D
:101F8000C1F8000110BD10B5A14C017031B10122A2
:101F900005210020FFF715FF002005E000220521A4
:101FA0001046FFF70EFF0120206010BD95484168E4
:101FB00041F004014160002101654164C0F8001353
:101FC000C0F80813C0F81013C0F81813C0F8201395
:101FD000C0F82813C0F8301370478A48806C00F0AE
:101FE000010070472DE9F041864C9846174660681D
:101FF0000D46002640F00400606026646664C4F864
:102000000063C4F808630120C4F81003606820F07E
:10201000040060600BE0A06C10F0010F07D102E03B
:10202000206CA8420DD8A06C10F0010FF8D04046EB
:1020300000F0E2F90028EED007E0A06C10F0010FEC
:1020400002D1206CB842F8D30126606840F0040049
:1020500060603046BDE8F0816A4A536843F004038B
:102060005360007818B129B101201065704709B19B
:102070000320FAE70020F8E770B562481546426889
:1020800042F004024260002202644264C0F800117F
:10209000C0F80012C0F800230121C0F80813C0F8EE
:1020A0001013416821F004014160574C627006E052
:1020B000284600F0A1F910B14FF0FF3070BD6078F4
:1020C0004007F5D5606870BD4E490120C1F8000396
:1020D000C1F80803C1F810034B4800214170417852
:1020E0004907FCD04178C90701D0002070474068FB
:1020F00070474448426842F0040242600022C0F83F
:102100000023C0F80823C0F810230423C0F81833B4
:102110000223C0F8203302644364C0F80C11C0F8F5
:102120000C1201210165416821F0040141607047F2
:10213000344808B5C0F80C12416C0091416C009A0B
:102140009142FBD008BD10B504464FF0FF31FFF7B8
:10215000EFFF2046BDE8104028E72A48426842F0D9
:1021600004024260C0F80011C0F800127047254810
:10217000416841F004014160002101640122C0F87E
:102180000023C0F80823C0F81023C0F82813C0F8B3
:102190003013426822F0040242601B4841708160A3
:1021A000417811F0050FFBD04178C90701D000201C
:1021B000704780687047134808B5491EC0F8181268
:1021C000416C0091416C009A9142FBD008BD0D48D2
:1021D00008B54268491E520731D50022C0F80023D5
:1021E000C0F80823C0F810231023C0F828330823B0
:1021F000C0F83033026404224264C0F81411C0F8FD
:10220000141215E00080011C480000020040074045
:102210000040014000800340B000000240420F0037
:102220000485011C0350010005D001000650020086
:1022300003210165416821F00401416008BDC0F837
:102240001412416C0091416C009A9142FBD008BD80
:1022500030B514460546FFF7BAFF21462846BDE8CB
:102260003040A8E7A2E6000000B58FB03A20099000
:10227000274A02A909A89047039806900498079056
:102280000598089006A9684600F011F86846FEF720
:10229000A9FE684602F0F2FF0FB000BD4FF040709B
:1022A0000021D0F80002C0688268084610472DE976
:1022B000F8430F461E2102F0AEFF804600256E4611
:1022C00057F8250003240090305D000902F05BFF01
:1022D0000146404603F04BF8305D00F00F0002F07D
:1022E00052FF0146404603F042F8641EECD52D2112
:1022F000404603F03CF86D1C032DE1DB404604F042
:102300003CFF411E404602F0C5FFBDE8F8830000D7
:10231000050200037048816801F007018160704781
:102320006E49D1F8F800000709D56D48C06900284A
:1023300005D051F8F82F42F008020A6000477047B4
:1023400071B16849684A01600A6002684FF0FF3164
:10235000C2F8001302684FF48051C2F804137047AA
:102360006249EFE770B55E4D0446287AC0070DD18B
:1023700005F1080005F002F840B1002105F10C005C
:10238000FFF7DEFF05F10800AFF300802879C007F2
:102390000DD15348001D04F0F1FF40B15048012118
:1023A0001030FFF7CDFF4E48001DAFF300801CB189
:1023B000012C04D0002070BD49480C3070BD484845
:1023C000103070BD464A92694A4301684B6843F039
:1023D00004034B60016851F8F43F43F001030B60C4
:1023E0000368002119640168C1F800210068416890
:1023F00021F00401416070470068D0F8F400C0F398
:10240000000070470068006C35498969B0FBF1F045
:10241000704710B5304A0021044691605161516007
:102420000F2000F04CF8204610BD2D4810B5007D5F
:10243000C0070BD12A48143004F0A0FF30B128485F
:10244000FFF7E7FF26481430AFF30080244810BDA3
:1024500023488069A0FB01231F4800218160C161DE
:10246000C160026003610921816070471A48806879
:1024700040F3C000401C704710B5194A0446174885
:10248000D16100218163142000F019F8204610BDAD
:102490001348826911484A4301218163C16B41F0AD
:1024A0000101C16342F000410163704710484FF4DD
:1024B0007A710068B0FBF1F0094988617047002823
:1024C00009DB00F01F02012191404009800000F16A
:1024D000E020C0F80011704700400B4000000A40A7
:1024E000540000020040021C010002000000021C17
:1024F000B000000210B54FF4806422460B2100208A
:10250000FFF776FC22460D210020FFF771FC012227
:102510000B210020FFF748FC01220D210020FFF7CE
:1025200043FC01220B210020FFF74BFC01220D216F
:102530000020FFF746FC29490020C860886010BDD4
:1025400010B5264CE06838B1E068401EE06003D169
:1025500001220B21FFF735FCA068002809D0A068F4
:10256000401EA06005D10122BDE810400D21FFF7FB
:1025700028BC10BD70B50446012004F0AFFE05462E
:10258000AFF24301FFF778FF2060204670BD13488B
:1025900010B50078C0070AD1104804F0EFFE30B142
:1025A0000E48001DFFF7E6FF0C48AFF300800B4814
:1025B000001D10BD00680A21FFF76ABF07490A2005
:1025C000886000220D211046FFF7FBBB03490A205B
:1025D000C86000220B211046FFF7F3BB7400000215
:1025E00070B505461646084601F0E6FF0446006849
:1025F0003146036820469847002801D0E168E96029
:1026000070BD70B504460020207104200D460A46B6
:10261000E06002212046FFF7E3FF00281ADC2A468B
:1026200003212046FFF7DCFF002813DC2A460421A3
:102630002046FFF7D5FF00280CDC2A46052120465E
:10264000FFF7CEFF002805DC2A462046BDE8704093
:102650000621C5E770BD0420704708A0FEF7E5B865
:1026600010B580682F21FDF7E2FD08B105A000E05C
:1026700005A0BDE81040FEF7D8B800004155544F02
:102680000000000041300000300000002DE9FC5F38
:1026900006464068102801DC002400E034684FF052
:1026A000000A25464FF00508214606EB0110407B45
:1026B00020B14FF00A084FF0010A04E00F291FD0A3
:1026C000491CA942F1D108F1030908F1060B322196
:1026D000684602F0A0FD0021684602F0DBFD06EB33
:1026E0000417002352466946B868FEF7A5FC20226D
:1026F0004146684602F0EBFD387B18B1532102E0F9
:102700000021DEE75221684602F031FE20224946D0
:10271000684602F0DCFDB87B3030C1B2684602F09A
:1027200026FE20225946684602F0D1FD07F110002E
:102730006A460821FEF774FD1AA1684602F04CFEB5
:1027400007F10F006A460121FEF76AFD6846FEF7B1
:1027500059F80F2C07D0641CAC42BCD1684602F07B
:102760008DFDBDE8FC9F0024F6E730B50468651CCC
:10277000056000EB04140D68A56022730A7962738A
:102780004A79A273D1F806202261D1F80A1061615A
:10279000E3730168102901DB002101604168491CD5
:1027A000416030BD20202D3E200000002DE9FC417D
:1027B0001F4615460C460092FDF70FFD2C21FDF734
:1027C00036FD8DF80400FDF708FD0921FDF72FFD0A
:1027D0000646227929462068FEF797FC684604F0F1
:1027E00083FC46B160793030C1B2284602F0BFFDAB
:1027F000684604F079FC2A463946A01DFEF710FD14
:10280000BDE8FC812DE9FC41884606463221684638
:1028100002F001FD707E08B1022400E0012408EB03
:10282000040518216F79B068FDF701FD30B13B193F
:102830006A4641463046FFF7B9FF04E0A81D6A46E4
:102840003946FEF7EDFC6846FDF7DCFF684602F00E
:1028500015FDD5E72DE9FE430F4604461646322105
:10286000684602F0D8FC607E002802D04FF00205D6
:1028700001E04FF0010502D04FF0060001E04FF0FB
:10288000070080464FF01801A068FDF7D0FC30B17A
:1028900008236A4639462046FFF788FF0FE006F016
:1028A0000F02F9A102A804F02DFD02A9684602F06A
:1028B000B5FD78196A464146801DFEF7B1FC6846B1
:1028C000FDF7A0FF684602F0D9FCBDE8FE832DE9C4
:1028D000FE43884606463221684602F09CFC707E24
:1028E000002802D04FF0020001E04FF0010002D0BA
:1028F0004FF0050501E04FF0060508EB0004617993
:10290000A07901F00F0140EA01274FF01801B068EB
:10291000FDF78DFC30B108236A4641463046FFF78B
:1029200045FF10E03A46DAA102A804F0EBFC02A849
:10293000FDF77BFFD8A1684602F070FDE01D6A46F6
:102940002946FEF76DFC6846FDF75CFF684602F01D
:1029500095FCBAE7407E00B101200844C1797F2987
:1029600002D1407A782801D00020704701207047BA
:1029700010B5FEF701FDBDE81040FEF755BD2DE98D
:10298000F04F85B091468A4604460026FFF7F0FFD7
:102990000490684602F00CFCB0464FF47A71A068CF
:1029A000FDF76BFCC07900B1012060760027384646
:1029B000FFF7D8FC83460499FFF704FD0025206942
:1029C000FEF79DFF80B369462069FEF79EFF5846DB
:1029D000FFF718FD8046FEF7CFFC4146FEF708FDE5
:1029E0009DF80E30002269466069FFF7BEFE694619
:1029F0002046FFF7AFFF08B1642E04DD5846049966
:102A0000FFF7E0FC05E041F288315846FFF7DAFCB9
:102A1000761C6D1C4FF00108BAF1000F22D0607EC9
:102A200018B19DF8070002E01CE09DF806000009BF
:102A300003D0012806D002280ED069462046FFF7B1
:102A4000E1FE0FE020686946426C204690476946E7
:102A50002046FFF73CFF05E07F1C3A4669462046CA
:102A6000FFF7F8FE5846FFF7C7FC08B94D45A6D357
:102A700005B04046BDE8F08FF0B58DB000240F469C
:102A800012990594069407941646049400940194B0
:102A9000029403940546027E08A802F093FB324696
:102AA00039460DF1260002F0F1FE0023012208A9AB
:102AB0006869FFF75AFE08A92869FEF797FE002803
:102AC00000D001200DB0F0BDF8B5044600680F46F7
:102AD0001D46016C16462046884700902B4632461C
:102AE00039462046FFF7C8FFF8BD2DE9FC470746E9
:102AF000002014468A4600900190B2F5805F39DAD2
:102B00004FF47A71B868FDF7B8FBC179002902D09B
:102B100004F1020601E004F1010602D04FF00101C8
:102B200001E04FF000017976082E23DCC179002501
:102B3000E94619B100788DF8000001253868816AEE
:102B4000384688470B2801D0082000E0304609F8B5
:102B5000054000F0FF086D1C09EB050022465146B8
:102B600002F094FEF2B2434669463846FFF7ACFFE6
:102B7000BDE8FC870020FBE72DE9F04104461D4637
:102B800016460F460069FEF71BFF324639462046BF
:102B9000FFF7ABFF40B12A4601212046FFF7EFFEC9
:102BA00020B10720BDE8F0810320FBE70420F9E70E
:102BB000F0B5044600680E468DB0016C0125204634
:102BC000884701460020059002220490069000925A
:102BD0000790CDE901500390227E082308A802F057
:102BE000F1FAE56020688169204688470621A068DF
:102BF000FDF71DFBA0B92069FEF7E2FE08A92069D8
:102C0000FEF7F4FD07460023012208A96069FFF7DB
:102C1000ACFD57B1AA1E31462046FFF7B0FE20B1E9
:102C20002571207E48B107204CE72068C169204605
:102C300088470420E060002044E7062042E770B5A2
:102C40000446002500690121FEF7A1FE002120694C
:102C5000FEF7ACFE6420FEF77CFA2069FEF7D8FE92
:102C600018B10EA0FDF7E1FD012501212069FEF755
:102C70009DFE6420FEF76DFA2069FEF7C9FE01286B
:102C800028D00DA028E0000025583A2000000000C0
:102C9000252E335800000000303A200043414E20DA
:102CA000776972696E67206661696C6564205B3064
:102CB0002D3E315D0000000043414E20776972696E
:102CC0006E67206661696C6564205B312D3E305D06
:102CD0000000000015B915A0FDF7A7FD2069BDE8AB
:102CE00070400021FEF753BE4069FFF7CFBC70B5BE
:102CF000002601F054FC0446114820602676FEF7B9
:102D0000FEFC20614FF4847004F0E8FA066005468A
:102D1000102346601A460B49083004F01DFB0838A2
:102D200060610420E0606676204670BD43414E201D
:102D3000776972696E67206973204F4B000000004D
:102D4000208A0000057100002DE9FF471E46174646
:102D500088460446FFF70CFE0546684602F028FA4E
:102D60000020FFF7FFFA81462946FFF72BFB0325DA
:102D70002069FEF7C4FD70B369462069FEF7C5FD02
:102D80009DF80E30002269466069FFF7EEFC607E18
:102D900090B19DF80700B5EB101F1DD100F00F0199
:102DA00088F800109DF8080038709DF80900307010
:102DB000012004B0BDE8F0879DF80600B5EB101FB8
:102DC0000AD100F00F0188F800109DF80700387054
:102DD0009DF80800EBE7FFE74846FFF70DFB0028EA
:102DE000C6D00020E5E7000070B5044680682F21BA
:102DF000FDF71DFA05462068816A204688470B28A2
:102E000002D01DB160A002E067A000E06BA0BDE8A9
:102E10007040FDF70ABD70B5044680682F21FDF7AC
:102E200006FA05462068816A204688470B2802D0AA
:102E30001DB169A002E069A000E069A0BDE8704092
:102E4000FDF7F3BC10B540F2DF74806840F2EE315C
:102E5000FDF713FAC17919B104F093F9C0F30A042C
:102E6000204610BD70B504464FF4FF6580684FF4EE
:102E70007B71FDF702FAC17919B104F082F9C0F350
:102E80000A054FF4FD6640F2E931A068FDF7F5F957
:102E9000C17919B104F075F9C0F30A062A46314622
:102EA0002069BDE870400023FEF7FABC2DE9F0432D
:102EB000894604468DB080680A21FDF7B8F90025DF
:102EC000002840D06521A068FDF7C9F9074640F207
:102ED000EB31A068FDF7D1F9804640F2EA31A068F5
:102EE000FDF7CBF90646059506953020CDE900059E
:102EF000079504950295082300224FF4FC6108A869
:102F0000039502F05FF999F80010089801F00701A5
:102F100008430890012F19D0002F0ADD4EB1CDF8DB
:102F20002650CDF82A50F27931460DF1260002F0F4
:102F3000ADFC08A92069FEF759FC0023012208A96D
:102F40006069FFF712FC0DB0BDE8F083B8F1000036
:102F5000E4D004F016F9C0F30A000890DEE710B5DB
:102F6000044600690121FEF70DFC2068016B204634
:102F70008847FFF70CFBFFF71DFBFEF7FDF900216B
:102F80004160816010BD00004155544F2C204953D1
:102F90004F2031353736352D34202843414E2031EE
:102FA000312F353030290000555345523120284308
:102FB000414E2031312F35303029000049534F2008
:102FC00031353736352D34202843414E2031312FCD
:102FD000353030290000000041360000420000007A
:102FE0003600000010B580682F21FDF720F908B1E8
:102FF00045A000E04CA0BDE81040FDF716BC10B5A0
:1030000080682F21FDF713F908B14EA000E04EA013
:10301000BDE81040FDF709BC38B504464B480090A8
:1030200040F2EE31A068FDF728F9C17911B104F042
:10303000A8F8009040F2ED31A068FDF71EF9C179C3
:1030400021B1007800F01F008DF80300009838BD12
:1030500070B504463E4D80684FF47B71FDF70DF965
:10306000C17919B104F08DF820F06045394E40F275
:10307000E931A068FDF701F9C17919B104F081F8CF
:1030800020F060462A4631462069BDE870400123A1
:10309000FEF706BC30B58DB00022044605920692BC
:1030A0003020CDE9000207920D460492029203926D
:1030B00008230122284908A802F084F829780898F2
:1030C00040EA0120089008A92069FEF78FFB002341
:1030D000012208A96069FFF748FB0DB030BD10B5AB
:1030E000044600690121FEF74DFB2068016B204674
:1030F0008847FFF74CFAFFF75DFAFEF73DF900212C
:103100004160816010BD00004155544F2C2049534F
:103110004F2031353736352D34202843414E20326B
:10312000392F35303029000049534F20313537369B
:10313000352D34202843414E2032392F3530302967
:10314000000000004137000037000000F133DB18B9
:1031500000FFFF1F00F1DA18F100DA1800F00F008D
:10316000401F0B2809D2DFE800F00808080806080D
:10317000060806080600012070470020704710B5B9
:10318000044680682F21FDF752F86169032907D0B2
:1031900004290DD0052912D100280ED0E7A003E0A4
:1031A00008B1EEA000E0F2A0BDE81040FDF73DBB85
:1031B00008B1F2A0F8E7F9A0F6E7FEA0F4E710BD29
:1031C00010B5044680682F21FDF731F861690329A5
:1031D00005D004290BD005290ED0FCA003E008B1CE
:1031E000FBA000E0FBA0BDE81040FDF71EBB08B14E
:1031F000F9A0F8E7F9A0F6E708B1F9A0F3E7F9A01C
:10320000F1E710B580687021FDF729F800EB800028
:10321000800010BD10B50446FFF7F3FF010002D097
:10322000206AFFF715F9606ABDE810403721FFF703
:10323000C9B810B5FEF7A0F8BDE81040FEF7F4B825
:1032400010B5087A0C4602280BD120684169204647
:10325000884761680A5C7F2A03D10844807878280F
:1032600001D0002010BD012010BD2DE9F047064619
:103270000020DDF82080C8601C4617460D4601205E
:10328000FFF770F882462146FFF79CF8002425E0FE
:103290005046FFF7B1F818BBF069FEF73FFD002874
:1032A000F6D0F069FEF736FD0146E8686A68431C0F
:1032B000EB60115444B95046FFF7A4F88146FEF77D
:1032C0005BF84946FEF794F800220B211046FEF702
:1032D00078FD41465046FFF775F8641CBC42DBDBC5
:1032E00001220B210020FEF76CFD2846BDE8F047C7
:1032F00001F01ABA2DE9F041064617460D46084678
:1033000001F012FA00220D211046FEF75AFD0024AA
:1033100013E06868015DF069FEF7F6FC6868015D1E
:10332000F069FEF700FDA0B1A88980B2401EA0425E
:1033300002DD3846FDF7F9FE641CA88980B2A04280
:10334000E7DC01220D210020FEF73BFD0120BDE856
:10335000F08101220D210020FEF733FD0020F6E769
:1033600010B50446606AFFF747F80028FAD010BD90
:1033700010B580680321FCF75AFF08B1132010BD77
:103380000D2010BD2DE9FC5F0025994614468B46A3
:1033900006462F46FFF74DFF80463046FFF7E8FF11
:1033A00082467069052826D0042824D00120FDF724
:1033B00070F8014601A804F033FB01A804F02CFBCF
:1033C00022465946FDF7CAF801A804F025FB01681A
:1033D000896888473046FFF7C3FFF069FEF7C7FCEE
:1033E00001A804F013FB014607223046FFF782FFD5
:1033F00018B1002449E00220D9E701A804F012FB2B
:103400000B20BDE8FC9F01A804F000FB014614203E
:103410000090434652463046FFF727FF01A804F0CC
:10342000FBFA80890004000C31D001A804F0F4FA02
:10343000808980B2052801A803D204F0F3FA0320A2
:10344000DFE704F0E3FA01463046FFF7F9FE08B182
:10345000642D04DD3046FFF7ECFE804602E041F2C9
:1034600088386D1C01271821641CB068FCF7DFFE4A
:1034700030B901A804F0D0FA01680969884778B129
:1034800001A804F0C9FAFDF786F84C45BBD33046D5
:10349000FFF7C0FE01A847B104F0C4FA0720B0E767
:1034A00001A804F0BFFA0A20ABE704F0BBFA04203D
:1034B000A7E770B50446002201250D211046FEF74E
:1034C00080FC0121E069FEF7E7FB0021E069FEF7DF
:1034D000B3FB1920FDF729FE0121E069FEF7ACFBE3
:1034E0001920FDF722FE01220D210020FEF769FCC4
:1034F000E069FEF747FC00B900250021E069FEF70E
:10350000CBFB284670BD2DE9FF5F0E46044605251E
:10351000FFF78FFE83462046FFF72AFF82460220F0
:10352000FCF7B7FF014601A804F07AFA00202071E9
:1035300016B12D4902A859E05FE000004155544FF3
:103540002C2049534F2031343233302D3420284B36
:103550005750204641535429000000004155544F14
:103560002C2049534F20393134312D3200000000D6
:1035700049534F20393134312D3200004155544FD9
:103580002C2049534F2031343233302D3420284BF6
:1035900057502035424155442900000049534F20DF
:1035A00031343233302D3420284B575020354241AE
:1035B0005544290049534F2031343233302D3420C3
:1035C000284B575020464153542900003F3F3F00AD
:1035D000413300003300000041340000340000009B
:1035E00041350000350000003186000001F01DFE6D
:1035F000FCF7B4FE02A801F041FE2046FFF759FF98
:1036000000284FD001A804F007FA0122F749FCF77F
:10361000A5FF01A804F000FA016889688847E069FD
:10362000FEF7A5FB01A804F0F1F9014607222046A8
:10363000FFF760FEA8B305264FF01409012701A883
:1036400004F0E4F901465B4652462046CDF800906E
:10365000FFF70BFE01A804F0DFF980890004000CDD
:1036600027D020790028EAD101A804F0D5F9808973
:1036700080B205284BD301A804F0CEF94068007849
:10368000F8B101A804F0C8F94068007880091AD0A0
:1036900001A804F0C1F940680078800615D0032520
:1036A00014E0FFE701A804F0BDF90B2004B0BDE869
:1036B000F09F2046FFF7AEFD01A804F0B3F92846BD
:1036C000F4E7022502E0012500E0042501A804F04A
:1036D000A3F94068405DC12819D101A804F09CF904
:1036E0004068284490F8018084F8118001A804F013
:1036F00093F9406828448078A074207C18B1404633
:10370000FFF72CFD18B127710125666197E70325A6
:1037100095E72DE9F0410646002201270D211046CC
:10372000FEF74FFB0121F069FEF7B6FA307E4FF647
:10373000FF7101EA400040F40075002405F001012A
:10374000F069FEF779FAC820FDF7EFFC6D08641CFC
:103750000A2CF3DB01220D210020FEF732FBF06979
:10376000FEF710FB00B900270021F069FEF794FA7C
:103770003846ECE52DE9FF4704460D460120FCF7ED
:1037800088FE014601A804F04BF9002020714DB1DC
:10379000964902A8093101F048FDFCF7DFFD02A8B7
:1037A00001F06CFD2046FFF7B4FF00287ED0E069F1
:1037B000FEF7DDFA14264DB18C4902A8091D01F06F
:1037C00034FDFCF7CBFD02A801F058FD01A804F080
:1037D0001DF90146B0464FF4967303222046009629
:1037E000FFF743FD01A804F017F980890004000CDD
:1037F00068D001A804F010F9808980B203286DD147
:1038000001A804F009F940680078552866D101A89C
:1038100004F002F9406890F801A084F811A001A812
:1038200004F0FAF840688778A7744DB16F4902A890
:10383000091D01F0FAFCFCF791FD02A801F01EFD44
:103840002120FDF772FC01A804F0E6F840688078BA
:10385000C64301A804F0E0F84068067001A804F02F
:10386000DBF80121C16001A804F0D0F8014607226D
:103870002046FFF73FFDC8B101A804F0C7F8014694
:10388000322301222046CDF80080FFF7EEFC01A88C
:1038900004F0C2F880890004000C13D0207EC043DD
:1038A000C6B201A804F0B8F8808900E003E080B255
:1038B000012813D10BE001A804F0B4F80B2004B0E8
:1038C000BDE8F08701A804F0ADF80520F7E701A8EE
:1038D00004F0A2F840680078B04204D001A804F0D7
:1038E000A1F80320EBE74DB1404902A8091D01F002
:1038F0009CFCFCF733FD02A801F0C0FC2F21A0685E
:10390000FCF795FC0646217C4FF0010803204FF0A0
:10391000040931B1082F09D0942F07D08F2F0DD073
:1039200018E0032D06D02DB126B90FE0032D01D0EC
:1039300005B17EB184F8048060610BE05046FFF76A
:103940000DFC38B1042D01D005B11EB184F80480FE
:10395000C4F814902046FFF75DFC207908B10124DB
:1039600000E0052401A804F05DF82046A7E710B5A3
:10397000044680682121FCF75AFC20746821A06865
:10398000FCF76DFC00B93320207610BD70B50446FD
:10399000007968BB2046FFF7EAFF2068816920466E
:1039A0008847666900256EB1032E04D0042E02D02C
:1039B000052E13D104E031462046FFF7DBFE0CE074
:1039C000314607E000212046FFF7D4FE0546207966
:1039D00098B900212046FFF796FD0546207940B1B1
:1039E0005EB10248801DFCF720FF06E0288600003B
:1039F00007E02068C16920468847E56020790028F3
:103A000000D0606970BD10B5C06942F6A001FEF734
:103A100053F9FDF7B1FC00214160816010BD0168E0
:103A2000C96B084710B50446C0690121FEF734F997
:103A30000121E069FEF700F90120FDF776FBE0695E
:103A4000FEF7A0F9012801D061A00BE00021E06998
:103A5000FEF7F2F80120FDF768FBE069FEF792F946
:103A600060B163A0FCF7E1FE0021E069FEF7E4F835
:103A7000E069BDE810400021FEF70EB964A0F1E74F
:103A80004161704700210171704710B50446FFF78E
:103A9000B8FB217931B128B1206AFEF7E7FC08B103
:103AA000012010BD002010BD2DE9FC410446FFF7A8
:103AB000ECFF00285CD02046FFF7BBFB06466069A0
:103AC00005281DD004281BD00120FCF7E2FC01468C
:103AD00001A803F0A5FF40F2F131A068FCF7CDFB8F
:103AE0000546C07970B101A803F096FFEA7929462E
:103AF000FCF734FD01A803F08FFF0168C96810E0EE
:103B00000220E2E76069032801A833D003F084FFB4
:103B100001224649FCF722FD01A803F07DFF016860
:103B200089688847E069FEF722F901A803F06EFF73
:103B3000014607222046FFF7DDFB98B114254FF41C
:103B4000827701A803F062FF014633463A462046D9
:103B50000095FFF78AFB01A803F05EFF808900044F
:103B6000000CEED12046FFF755FB01A803F05AFFE9
:103B7000BDE8FC8103F050FF2C490222491CC9E733
:103B80001CB504463221684601F045FB694604F144
:103B90001100FDF7F0FA6846FCF734FE684601F0C4
:103BA0006DFB1CBD10B500F0FAFC044620482060F7
:103BB00000206061FEF73EF8E061FEF736FC20620F
:103BC0000120FEF7CFFB60620420E060204610BDBC
:103BD00049534F393134312F313432333020776902
:103BE00072696E67206661696C6564205B315D0097
:103BF00049534F393134312F3134323330207769E2
:103C000072696E67206661696C6564205B305D0077
:103C100049534F393134312F3134323330207769C1
:103C200072696E67206973204F4B0000298600007F
:103C3000748B000070B5FFF75AF80446FB4820600B
:103C400001202076102003F049FB0546214600F0B4
:103C50006BFAE061204670BDF5A0FCF7E6BD10B53B
:103C600080682F21FCF7E3FA08B1F7A000E0F7A085
:103C7000BDE81040FCF7D9BD1CB50446F4480090DF
:103C800040F2EE31A068FCF7F8FAC17929B10429B5
:103C90001BD0022923D00020009040F2ED31A06813
:103CA000FCF7EBFAC17921B1007800F01F008DF824
:103CB000030040F2EF31A068FCF7DFFAC17911B1DF
:103CC00000788DF8000000981CBDC27881780078DB
:103CD0008DF804208DF805108DF8061009E0417864
:103CE000037800228DF804108DF8053010468DF809
:103CF00006208DF807000198CEE710B50069002175
:103D0000FDF740FDFEF743FCBDE81040FEF752BC56
:103D10007CB516460C460092FCF75FFA2C21FCF7A6
:103D200086FA8DF80400FCF758FA1E21FCF77FFA9A
:103D30000028206848D0C0F3826001F024FA0146D0
:103D4000304601F014FB684603F0CEF92068C0F35A
:103D50001125280C01F017FA0146304601F007FB47
:103D6000C5F3033001F00FFA0146304601F0FFFAC7
:103D7000C5F3032001F007FA0146304601F0F7FAD7
:103D8000C5F3031001F0FFF90146304601F0EFFAE8
:103D900005F00F0001F0F7F90146304601F0E7FAAF
:103DA000684603F0A1F92578280901F0ECF90146ED
:103DB000304601F0DCFA05F00F0001F0E4F90146AD
:103DC000304601F0D4FA03E001223146FDF79DF9B7
:103DD000684603F089F961793246A01DFDF720FAA3
:103DE0007CBD7CB50C4605463221684601F013FACD
:103DF0001821A868FCF71BFA28B16A462146284614
:103E0000FFF786FF04E061796A46A01DFDF708FA16
:103E10006846FCF7F7FC684601F030FA7CBD7FB5D8
:103E20000C4605463221684601F0F5F91821A868CC
:103E3000FCF7FDF928B16A4621462846FFF768FFDE
:103E40000EE0A27983A102A803F05CFA02A96846F9
:103E500001F0E4FA61796A46E01D491EFDF7E0F9D8
:103E60006846FCF7CFFC684601F008FA7FBD08B54C
:103E7000C0697AA1C288684603F044FA6846FCF734
:103E8000D4FC08BD10B5FCF7A8F96D21FCF7E7F9E3
:103E90000446FCF7A2F92021FCF7C9F908B1052076
:103EA00000E0012014B14443A00010BD40F2DC50FA
:103EB00010BD2DE9FF410446FFF7E4FF06466846C2
:103EC00001F076F900252846FEF74CFA0746314600
:103ED000FEF778FA2069FDF712FD40B369462069C4
:103EE000FDF713FD18B39DF80E3000226946606996
:103EF000FEF73BFC31463846FEF764FA00984FF473
:103F00007F4101EA1020B0F5684F06D0B0F56B4F45
:103F10001FD0B0F56C4F05D112E06946E06900F0A2
:103F20000EF920B169462046FFF75BFF6D1C38464D
:103F3000FEF762FA0028CDD004B02846BDE8F08133
:103F40006946E06900F014F969462046FFF78FFFE3
:103F5000ECE76946E06900F060F969462046FFF742
:103F60005EFFE3E7F8B504463E4E0120CDB2009077
:103F70003246090201232069FDF7B2FC02200090BD
:103F80004FF47F024FF4680101232069FDF7A8FC7C
:103F90004FF46C0040EA05210320009001233246D3
:103FA0002069FDF79DFC4FF46B0040EA05210420D9
:103FB0000090012332462069FDF792FCF8BD082AE3
:103FC00001DD00207047D3B2D2B2FEF77DBD7CB5D3
:103FD00004460020009001901546684601F056FC0A
:103FE0001D21A068FCF723F918B929466846FDF79A
:103FF0009FF92069FDF7E4FC2A4669462046FFF751
:10400000DEFF90B19DF802109DF801209DF80000A0
:10401000090441EA022101432046FFF7A3FF20469D
:10402000FFF747FF10B3072521E01DE0B08900002E
:10403000534145204A31393339202843414E2032FB
:10404000392F323530290000414100004100000085
:10405000F9FFEA18252E32583A200000252E335851
:104060000000000000FFFF0003207CBD0425206944
:10407000FDF7A1FC28467CBD10B5044600688169A7
:10408000204688470120E06020710A2010BD2DE9FC
:10409000F04190460C460746FCF79FF80D21FCF7CF
:1040A000C6F8060003D001213869FDF7A1FC2146BE
:1040B0003846FFF757FFFDF7CDFC05460121FDF718
:1040C0009CFD00243846FFF7F4FE044495F8D50023
:1040D00008B94445F6D33869FDF76DFC1EB10021DF
:1040E0003869FDF785FC95F8D50010B10CA0FCF7F8
:1040F0009CFB2846BDE8F0410021FDF77EBD4FF056
:10410000FF324FF6CA61C2E730B48C784D78097837
:104110001A46090441EA0521214330BCB7E70000F3
:1041200053544F5050454400016000210171C1803B
:10413000C17201734173817241720172704710B58F
:10414000CA7A037A9A4201D1012200E000220B7B55
:10415000447AA34201D1012300E00023497B807A05
:104160001A40814201D1012000E00020104010BD22
:104170003EB50446CA79087A42EA0020E080487ACF
:1041800020710878207320680168096C8847E07204
:104190000020607328A00823D0E90010CDE90110A9
:1041A00020798DF80500207A8DF80900607A8DF865
:1041B0000A00A07A8DF80B00B4F80B0020491A46CB
:1041C0000843009001A92068FEF756FC3EBD3EB5AD
:1041D0001CA2C188D2E90042CDE901420B0A8DF848
:1041E00005108DF8063001798DF80710017A8DF8E9
:1041F0000910417A8DF80A10817A8DF80B10027A35
:104200000F4BC17A43EA0222114300910823006850
:104210001A4601A9FEF730FC3EBD8A79417B491C54
:10422000C9B241738A4201D000207047027991429D
:1042300000D1CCE701207047110001FFFF00000012
:104240000000EC1C13000000FF00000010B5044645
:10425000012000F0B1F92060204610BDC94810B51A
:104260000078C0070AD1C74803F088F830B1C548C4
:10427000001DFFF7EBFFC348AFF30080C148001DEE
:1042800010BD006801688968084700680168C9684E
:10429000084770B50668154604460C2949D2DFE880
:1042A00001F0061214161F29323448483632012014
:1042B00000F082F92060042000F07EF901684A696C
:1042C0000021904727E0022022E0032020E0042084
:1042D00000F072F9206055B301684A69032107E0D4
:1042E000042000F069F920600DB301684A690421D7
:1042F000904711E0042000F05FF92060BDB1016833
:104300004A690521F4E7052002E0062000E00720C5
:1043100000F052F9206055B12068B04207D03068F3
:10432000C16930468847206801688969884701204B
:1043300070BD022070BD00680168496A08470068C6
:1043400001680969084700680168C9690847006889
:104350000168896A084770B506460D46082404209E
:1043600000F02AF93168884201D1092407E00320CE
:1043700000F022F93168884201D14FF402640DB196
:10438000A54201DD002070BD012070BD2DE9F04780
:1043900007460C467CA50846FDF791F8824638464C
:1043A0002169FFF7D8FF58B13868017959B1D4E9CC
:1043B000031203685C685346A446BDE8F0476047B3
:1043C0000320BDE8F087201D294601F039F820B10F
:1043D000FFF744FFFFF7BBFF88B1002081460120B3
:1043E00000F0EAF806463868B0420AD1306849461B
:1043F00002683046904780463868C5681AE0012058
:10440000ECE701680A684946904780463868C56805
:10441000FBF7E3FE2F21FBF70AFFB8F1000F0CD1E9
:10442000F8B1042D1FD130684946026830469047E4
:10443000F5688046B8F1000F15D000224146384695
:10444000FFF727FFB9F1000F03D0A8F103000228FE
:1044500008D83868D4E9031203685C685346A0475B
:10446000054600E007252846ABE710B5FFF78EFFAD
:10447000801E0A2823D2DFE800F005070D1013255F
:1044800016191C1F424801E041481030BDE8104099
:10449000FCF7CBB93E480830F8E73D48801CF5E70B
:1044A0003B481B30F2E73A483630EFE738483F30B8
:1044B000ECE737484930E9E735482D30E6E734483E
:1044C0005530E3E710BD10B5022000F075F8016823
:1044D000096A8847032000F06FF80168096A884775
:1044E000042000F069F80168096A8847052000F097
:1044F00063F80168096ABDE81040084710B5042058
:1045000000F05AF80168C96A8847012010BD0068A8
:104510000168096B084700680168496B08472DE985
:10452000FF4106460D46084602F027FE0C2826D815
:1045300029464FF0FF34C2070FD0421E01236846C0
:1045400000F02DFF10220021684600F00BFE074608
:10455000684600F093FE07B13C4602A92846FCF7E6
:1045600036FE054601463046FFF7F5FE002806D028
:10457000306823462A4601688E6B02A9B047BDE821
:10458000FF81000084000002303130300000000064
:104590003C860000002101710421C160704710B504
:1045A00004467C482060FBF718FEA06000202071C4
:1045B0000420E060204610BD70B5774C0546207E93
:1045C000C0070BD104F1180002F0D8FE30B17348D7
:1045D00000F079FD04F11800AFF30080207DC007E2
:1045E0000CD16D48143002F0C9FE38B16B48183058
:1045F00000F0FBFA68481430AFF30080207CC0075D
:1046000010D16548103002F0B9FE58B1634830301F
:10461000FFF7C5FF62490160002101715E4810305B
:10462000AFF30080207BC0070CD15B480C3002F058
:10463000A5FE38B159484030FFF7B4FA56480C305F
:10464000AFF30080207AC0070ED15348083002F043
:1046500095FE48B151486830FEF749FB5149016069
:104660004D480830AFF300802079C00710D14A4888
:10467000001D02F083FE58B148488430FEF737FB36
:1046800049490160012101764348001DAFF30080D4
:104690002078C0070AD1404802F070FE30B13F4890
:1046A000A030FFF7C7FA3C48AFF30080082D19D2BD
:1046B000DFE805F0180409070C0F121537483030F1
:1046C00070BD364870BD3548183070BD3348403035
:1046D00070BD3248683070BD3048843070BD2F489E
:1046E000A03070BD002070BD7CB52C4D0024C035BD
:1046F0003221684600F08FFD28196A461021FCF728
:104700008FFD6846FCF77EF8684600F0B7FD103470
:10471000FF2CEDD97CBD20490020C8611F484FF413
:104720008071C03001F0D9B870B5064680890404A4
:10473000240C1ED0184D4FF48071E8691030884267
:1047400005D90020E8611548C03001F0C6F80F2CEB
:1047500001D90F2200E02246104BE869C0331A54F9
:10476000401CE8611844716801F090F8E8690F3066
:10477000E86170BD10B5084A044600210748D161C0
:104780004FF48071C03001F0A8F82046BDE8104019
:10479000CAE70000308B00008C000002C005000258
:1047A0006C890000908A0000E08A000070B50D4618
:1047B000064600242806706902D51022082101E06F
:1047C00008221021FDF744FD6806050E641C082C24
:1047D000F0DB012070BD10B504460F20FCF7B9FCDA
:1047E0002046BDE81040F121E0E770B50646002004
:1047F0000C46087005462078400020707069FDF76F
:10480000B6FC002803D0132802D94FF0FF3070BD4A
:104810000C2803D8207840F0010020706D1C082D72
:10482000E9DB012070BD10B504462321D4E9042042
:10483000FDF722FC411C03D01E28F6D3012010BD39
:10484000002010BD2DE9F04106460020C860174643
:104850000D463046FFF7E7FF00282AD000220B2143
:104860001046FDF7AEFA1B217069FDF776FC0024B7
:1048700009E0686801193046FFF7B7FF002804D047
:1048800019DB04F10104BC42F3DB7069FDF78EFB18
:104890003046FFF7A0FF7069FDF788FBA0B2E86023
:1048A00001220B210020FDF78CFA2846FFF73CFF80
:1048B0000120BDE8F0817069FDF778FB01220B2132
:1048C0000020FDF77EFA4FF0FF30F2E738B50446DE
:1048D00000208DF800003F216069FDF73EFC69462D
:1048E0002046FFF782FF38BD10B504464069FDF74A
:1048F0005DFB60691022BDE810402021FDF7A8BCD7
:104900002DE9F04105460E460846FFF733FFD5E98D
:10491000043060224621FDF765FB4FF0FF3748B1B8
:1049200000220D211046FDF74CFA2846FFF7DCFF68
:1049300000240BE06869FDF739FB3846B9E7706879
:10494000015D2846FFF732FF80B1641CB08980B258
:10495000A042F4DC6869FDF785FC01220D210020EE
:10496000FDF72FFA2846BDE8F041AFE701220D21FF
:104970000020FDF726FADDE710B5FCF7FDFCBDE8E9
:104980001040FCF751BD2DE9F84F984615460F46EB
:104990000446DDF82890FFF7EFFF8246002603204B
:1049A000FBF777FD0146684603F03AF8684603F0E6
:1049B00033F82A463946FBF7D1FD684603F02CF858
:1049C000016889688847684603F026F840685146C0
:1049D0004078401CC7B22069FDF7F4FC684603F03C
:1049E00015F801462046FFF78BFFB0F1FF3F41D09D
:1049F000C8B351462069FDF7E5FC0025684603F081
:104A000005F801460D222046FFF71CFF411C36D059
:104A100000285CD0684602F0FFFF808980B205283C
:104A200049D3684602F0F8FF808980B2FF2842D857
:104A3000684602F0F1FF40684078B8423BD12069F7
:104A4000FDF7E0FC0646FCF797FC3146FCF7D0FC8E
:104A500051466D1C2069FDF7B5FC1821A068FBF7D5
:104A6000E6FB88B117E0FFE7684602F0DBFF0420B1
:104A7000BDE8F88F684602F0D5FF0820F8E76846E1
:104A800002F0D0FF0920F3E7684602F0C5FF016895
:104A900009698847A0B1B9F1000F0BD0684602F050
:104AA000BBFF80890004000C04D0684602F0B4FF0C
:104AB000FBF771FD01262069FDF79EFC28B106E099
:104AC000684602F0AFFF0A20D2E7454596D30EB103
:104AD000072400E00424684602F0A4FF2046C7E74C
:104AE00038B501240094FFF74EFF38BD10B580683B
:104AF0002F21FBF79CFB08B143A000E047A0BDE8D5
:104B00001040FBF792BE10B580682F21FBF78FFB9A
:104B100008B146A000E046A0BDE81040FBF785BE06
:104B200010B540690021FDF72EFAFCF725FC0021A5
:104B30004160816010BD10B504460068816920465F
:104B4000884701216069FDF787FA0120FCF7EDFA3B
:104B50006069FDF742FA012801D036A00BE0002180
:104B60006069FDF779FA0120FCF7DFFA6069FDF76B
:104B700034FA60B136A0FBF758FE00216069FDF7FA
:104B80006BFA2068C1692046BDE81040084737A08D
:104B9000F1E77CB504463AA00D4600680190206814
:104BA000826920469047FFF759FBFFF7D0FB0228A8
:104BB0000DD04FF0FF33022201A920460095FFF7E8
:104BC000E2FE072806D00020207128B10BE001206A
:104BD000207108E00120F7E72068C1692046884776
:104BE0002079002800D001207CBD10B5FFF7D7FC4C
:104BF000044624482060FDF737F960610020FDF786
:104C0000B1FB2061204610BD4155544F2C2053412B
:104C100045204A313835302050574D00534145200A
:104C20004A313835302050574D00000041310000E6
:104C30003100000050574D20776972696E67206619
:104C400061696C6564205B312D3E305D00000000C1
:104C500050574D20776972696E67206661696C658F
:104C600064205B302D3E315D0000000050574D2028
:104C7000776972696E67206973204F4B00000000EE
:104C800001000000E48800002DE9F041054680683D
:104C90006F21FBF7E4FAEF260446A327B6FBF4F1F5
:104CA000D5E90420FDF7E8F9411C06D0B7FBF4F183
:104CB0008142F3D80120BDE8F0810020FBE72DE917
:104CC000F74F804680686F21FBF7C9FA04460198C8
:104CD000019947680020C8604046FFF7D5FF0028CB
:104CE00042D000220B211046FDF76BF8002528E08A
:104CF000082600204FF0220A4FF0A30B19E04006CF
:104D00004FEA1069D8F81400FDF7DEF9E0B1BAFBFC
:104D1000F4F181422AD8BBFBF4F1814226D3602111
:104D2000B1FBF4F1814201D2012000E0002040EA11
:104D300009003146761EE2D280F0550007F8010BDB
:104D40006D1C02988542D3DBD8F81400FDF72EF9CC
:104D50000199A8B20122C8600B210020FDF731F8AB
:104D60000198FFF7E1FC0120BDE8FE8FD8F81400A0
:104D7000FDF71CF901220B210020FDF722F84FF06E
:104D8000FF30F1E72DE9F05F8A46044680686F2125
:104D9000FBF765FA05465046FFF7ECFC40F20510BC
:104DA000B0FBF5F24FF49670B0FBF5F1D4E90430A6
:104DB000FDF718F9002837D000220D211046FDF725
:104DC00000F8C820B0FBF5F16069FDF792F94FF0EB
:104DD00000084FF0400B3BE0DAF80400082710F819
:104DE000086030E0F8074FEA06601FD0002802DABA
:104DF0004FF0800900E0D946B9FBF5F16069FDF795
:104E000097F9B9FBF5F04008FCF7A3F96069FDF7E5
:104E1000E4F8B0B16069FDF7C9F801220D21002066
:104E2000FCF7CFFF4FF0FF30BDE8F09F002802DA1B
:104E3000BBFBF5F102E08020B0FBF5F16069FDF706
:104E400077F97006060E38467F1ECBD208F10108AE
:104E5000BAF80C0080B24045BEDC6069FDF773F91A
:104E600001220D210020FCF7ACFF0120DCE710B58A
:104E7000FCF782FABDE81040FCF7D6BA2DE9F84FEE
:104E8000984615460F460446DDF82890FFF7EFFFD9
:104E9000834600260420FBF7FCFA0146684602F030
:104EA000BFFD684602F0B8FD2A463946FBF756FBBF
:104EB000684602F0B1FD0168896888470421A0684E
:104EC000FBF7B5F930B1684602F0A6FD40684078BE
:104ED000401C03E06B21A068FBF7C1F9C7B259463B
:104EE0002069FDF76FFA684602F090FD0146204602
:104EF000FFF748FFB0F1FF3F35D098B3594620691E
:104F0000FDF760FA00254FF4026A684602F07EFD64
:104F1000014652462046FFF7D2FE411C39D0E0B38D
:104F2000684602F079FD808980B2052831D3684651
:104F300002F072FD40684078B8422AD12069FDF73E
:104F400061FA0646FCF718FA3146FCF751FA594661
:104F50006D1C2069FDF736FA1821A068FBF767F988
:104F600038B10DE0FFE7684602F05CFD0820BDE8BF
:104F7000F88F684602F050FD01680969884768B1FA
:104F8000B9F1000F04D0684602F046FDFBF703FBC1
:104F900001262069FDF730FA28B106E0684602F0E4
:104FA00041FD0A20E3E74545AFD30EB1072400E0F9
:104FB0000424684602F036FD2046D8E738B50124BF
:104FC0000094FFF75BFF38BD10B580682F21FBF719
:104FD0002EF908B143A000E047A0BDE81040FBF760
:104FE00024BC10B580682F21FBF721F908B146A039
:104FF00000E046A0BDE81040FBF717BC10B54069C3
:105000000121FCF7C0FFFCF7B7F900214160816086
:1050100010BD10B50446006881692046884701210B
:105020006069FDF719F80120FCF77FF86069FCF76B
:10503000D4FF012801D036A00BE000216069FDF704
:105040000BF80120FCF771F86069FCF7C6FF60B14E
:1050500036A0FBF7EAFB00216069FCF7FDFF206842
:10506000C1692046BDE81040084737A0F1E77CB58C
:1050700004463AA00D4600680190206882692046E7
:105080009047FFF7EBF8FFF762F902280DD04FF0D9
:10509000FF33022201A920460095FFF7EFFE072803
:1050A00006D00020207128B10BE00120207108E01B
:1050B0000120F7E72068C169204688472079002849
:1050C00000D002207CBD10B5FFF769FA04462448E1
:1050D0002060FCF7C9FE60610020FDF743F9206104
:1050E000204610BD4155544F2C20534145204A3194
:1050F0003835302056505700534145204A31383515
:1051000030205650570000004132000032000000AD
:1051100056505720776972696E67206661696C65C1
:1051200064205B312D3E305D00000000565057205A
:10513000776972696E67206661696C6564205B30AF
:105140002D3E315D0000000056505720776972698E
:105150006E67206973204F4B0000000001000000C3
:105160002889000070B515460C00064602D002F0F2
:1051700004F82060304601F0F8FF2A46BDE8704090
:10518000002100F0D3BB1FB505A10F281EC98DE873
:105190001E0003D81DF8000004B010BD0020FBE77E
:1051A000303132333435363738394142434445465D
:1051B00000210160017141718173C0F80610C0F8CF
:1051C0000A1070472DE9F0470DF1200E9EE8F01708
:1051D0000160027143718471C5710672477280F873
:1051E0000A8080F80B9080F80CA080F80DC0BDE814
:1051F000F087000010B50446322900D83221491C3E
:1052000088B2E08002F066F82060A048E188026879
:105210001144016010BD10B50446FFF7EBFF216893
:1052200000200870A080204610BD70B504460D46D1
:10523000084600F05DFB81B2A1802046FFF7DAFF4F
:105240002946206800F069FB204670BD70B50D4608
:10525000898804468180FFF7CDFF2968206800F027
:105260005CFB204670BD0A680260CA88C2808A88DA
:105270008280002008608880C880704710B504468E
:10528000006802F01FF88148E1880268511A016045
:10529000204610BD82888A4204D989B28180006884
:1052A00000224254704770B50446C0880D46A8429B
:1052B0000CD2084602F00EF80646A288216800F0DB
:1052C000E5FA206801F0FEFF2660E58070BD2DE95B
:1052D000F041044680880D46002790468EB2A842D1
:1052E00004D9A68020688755BDE8F081FCD205F17D
:1052F00001012046FFF7D7FFA088216842460B181E
:10530000291A184600F0E2FAEBE770B504460E469B
:10531000084600F0EDFA0546A188401C01442046ED
:10532000FFF7C1FFA18820680844314600F0F5FA74
:10533000A0882844A080204670BD70B50E46044663
:105340008188501C014415462046FFF7ACFFA18818
:1053500020682A460844314600F098FAA0880021C7
:10536000284480B2A08022681154204670BD70B5D8
:105370000D4681880446891CFFF795FFA1882068A7
:105380004554A0880021401C226880B2A08011549E
:10539000204670BD002181800068017070472DE9B2
:1053A000F0410D468988914201D8002400E014465E
:1053B000994201D2091B00E019460E46491CFFF72D
:1053C0002AFF07462868324601193846FFF7B5FF1D
:1053D0008AE78A880968B0E797E770B50C46054602
:1053E000A0420BD0A188491CFFF75DFFA28821686D
:1053F000521C286800F04AFAA088A880284670BD90
:1054000070B50D460446A84206D0206801F05AFF48
:1054100029462046FFF727FF204670BD70B5054698
:105420000E46084600F064FA0446411C2846FFF781
:105430003AFF3146286800F070FAAC80284670BD0B
:1054400010B50C4601F091FE214600F058FA08B163
:10545000002010BD012010BD2DE9F0410446154685
:105460000E46084600F044FA0746284601F085FE3D
:1054700039182046491CFFF7CEFE04463146FFF797
:10548000ABFF29462046FFF7A4FF2DE7AC00000242
:105490002DE9F04116460D460746002404E031464A
:1054A0003846FFF764FF641CAC42F8D33846BDE8C9
:1054B000F08170B50C4616460546491CFFF7F3FE11
:1054C000AC8032462146286800F000FA29680020A6
:1054D0000855284670BD70B51446FFF7B7FE05465F
:1054E0002146FFF776FF70BD70B504460E4615469F
:1054F000104601F042FE811C2046FFF78CFE044658
:105500003146FFF734FF29462046FFF762FF70BDA2
:105510002DE9F041044615460E46084601F02DFEE1
:105520000746284600F0E4F939182046491CFFF7E1
:1055300072FE04463146FFF74CFF29462046FFF72E
:105540004BFFBDE8F08170B5044615460E4608468F
:1055500001F013FE811C2046FFF75DFE0446314634
:10556000FFF737FF29462046FFF701FF70BD000017
:105570000948026842F0180202600848804708485B
:105580000047FEE7FEE7FEE7FEE7FEE7FEE7FEE791
:10559000FEE7FEE7FEE70000C44007402D5600008E
:1055A000FD00000030B5464AD2F88400454B10F0AB
:1055B0000301454D45484FF0000406D001290FD0A6
:1055C00002291BD003292AD108E0D2F8801011F05B
:1055D000030111D001290FD002290AD105601EE074
:1055E000D2F8A01011F0030106D0012904D002293D
:1055F00014D0032913D111E0036010E0D2F8A010F9
:1056000011F0030101D00129F1D1D2F898112D4BED
:1056100001F01F01491C5943016000E00460D2F809
:10562000C0100268B2FBF1F1016030BD08B524483A
:105630000023C0F88831D0F8081221F40011C0F816
:105640000812009300BF0099491C0091C829F9D3A2
:105650000122C0F8A020C0F88831D0F8081221F447
:105660000011C0F80812009300BF0099491C009176
:10567000C829F9D3C0F880204321C0F89811D0F888
:10568000081221F48001C0F80812D0F89C11C90753
:10569000FBD0022140F8841FC263D0F8841141F48A
:1056A0000071C0F88411D0F8841141F40001C0F8F1
:1056B0008411D0F8841141F08071C0F8841108BDC4
:1056C00000400740001BB700D8AC0700B000000244
:1056D00070B5054600F02FFB0446284600F0EEF9B1
:1056E00038B12946A06900F05AFBC169491CC16163
:1056F00002E0A5F12000C169012902D1A1698161FF
:10570000A061012070BD70B500F015FB84690546ED
:105710000CB900F0FFFA04F12006304600F0CEF993
:1057200068B1E0692668012802D0401EE0610BE004
:10573000A16904F17800A96100F0DBFA04E0E069F6
:10574000012801D1A069A861304670BD70B5054639
:1057500000F0F1FA04461DB1284600F0AFF908B197
:10576000A06801E055F8140C206101202073BDE809
:10577000704000F0CFBA040001D000F0A9F9204633
:10578000FFF7E4FF2DE9F14DD0E90C8581B0064625
:10579000D0F828A000F0CFFA0446A6F12007304642
:1057A00000F096F9304600F089F908B1606800E031
:1057B000B868206100F0E4FABDE8FC8D00F088F9DB
:1057C0006669BE4202D100F06FFA0DE03069606197
:1057D00000F06AFA05E000F07BF900F09BFA00F0B7
:1057E00063FA60693061666100273C4606F1200B70
:1057F00011E02E686B4600223146584600F0C8F989
:1058000008B100F025F93146104801F0DBFC00B189
:1058100001274544641C5445EBD38FB1684601F021
:1058200015FD042000F0E4F8694601F007FD044688
:10583000684601F01AFD064A0449204600F08DF939
:105840005846FFF783FF00F02FFAB5E78487000082
:105850006B720000002300F0DBBA202A04DB203A40
:1058600000FA02F1002070479140C2F1200320FAB3
:1058700003F31943904070470048704720870000A9
:10588000A0F16101192900D82038704710B5431ADA
:10589000934209D28318881803E010F8011D03F819
:1058A000011D521EF9D210BD40EA01039B0703D02F
:1058B00009E008C9121F08C0042AFAD203E011F84F
:1058C000013B00F8013B521EF9D210BDD2B201E0FB
:1058D00000F8012B491EFBD270470022F6E710B5F5
:1058E00013460A4604461946FFF7F0FF204610BD4E
:1058F000421C10F8011B0029FBD1801A704710B51B
:10590000002200E0521C835C8C5CA34201D1002B7E
:10591000F8D1D8B2E1B2401A10BD034611F8012BFC
:1059200000F8012B002AF9D1184670472DE9F05FE5
:1059300093460F4680460446002601F009FDD0F844
:105940000090824614F8015B2DB1FFF795FF0068C7
:10595000405DC007F6D12B2D02D02D2D1AD0641E2C
:105960000021CAF800105A463946204600F065FD6D
:10597000014627B13868A04201D1C7F80080DAF8A3
:105980000000022809D0CAF80090700505D54842E9
:10599000BDE8F09F46F48066E2E70846F8E70000BD
:1059A00070B5054C054D03E0206820448047241D58
:1059B000AC42F9D170BD00004C8E0000508E00004A
:1059C0002DE9F041074615460E46102001F0E2FF92
:1059D00004000AD06760C4E9026500F07DFD01683B
:1059E000216004600020BDE8F0810120FBE7000099
:1059F00070B5044600F09FF97834054626462046E7
:105A000001F0C8FF040007D13146E86900F09CFDB1
:105A1000040001D1FFF79AFE0AA104F12000D1E9A8
:105A20000021C0E900210021A162E16261612161E0
:105A3000A161E161A868E0606868A06004F1780095
:105A400070BD000041524D00432B2B0000000000B0
:105A500070B500F070F94469054614B90020FFF7ED
:105A600075FEE06904F12006401CE061304600F05C
:105A700025F8002801D0266803E0286800F101001D
:105A8000286002D04FF0000200E022684FF00001D1
:105A90003046FAF751FB3046FAF769FB3046FFF71C
:105AA0006AFE000002680B689A4205D140684968A6
:105AB000884201D1012070470020704710B503498A
:105AC000FFF7F0FF80F0010010BD00002487000008
:105AD00070B50546466A00F02EF904462846FFF7E1
